{
  "_format": "hh-sol-artifact-1",
  "contractName": "MyNFT",
  "sourceName": "contracts/MyNFT.sol",
  "abi": [
    {
      "inputs": [
        {
          "internalType": "string",
          "name": "_name",
          "type": "string"
        },
        {
          "internalType": "string",
          "name": "_symbol",
          "type": "string"
        }
      ],
      "stateMutability": "nonpayable",
      "type": "constructor"
    },
    {
      "inputs": [],
      "name": "InvalidRecipient",
      "type": "error"
    },
    {
      "inputs": [],
      "name": "NotOwner",
      "type": "error"
    },
    {
      "inputs": [
        {
          "internalType": "address",
          "name": "spender",
          "type": "address"
        },
        {
          "internalType": "address",
          "name": "owner",
          "type": "address"
        },
        {
          "internalType": "uint256",
          "name": "tokenId",
          "type": "uint256"
        }
      ],
      "name": "NotTokenOwner",
      "type": "error"
    },
    {
      "inputs": [
        {
          "internalType": "uint256",
          "name": "tokenId",
          "type": "uint256"
        }
      ],
      "name": "TokenNotFound",
      "type": "error"
    },
    {
      "anonymous": false,
      "inputs": [
        {
          "indexed": true,
          "internalType": "address",
          "name": "from",
          "type": "address"
        },
        {
          "indexed": true,
          "internalType": "address",
          "name": "to",
          "type": "address"
        },
        {
          "indexed": true,
          "internalType": "uint256",
          "name": "tokenId",
          "type": "uint256"
        }
      ],
      "name": "Transfer",
      "type": "event"
    },
    {
      "inputs": [
        {
          "internalType": "address",
          "name": "owner",
          "type": "address"
        }
      ],
      "name": "balanceOf",
      "outputs": [
        {
          "internalType": "uint256",
          "name": "",
          "type": "uint256"
        }
      ],
      "stateMutability": "view",
      "type": "function"
    },
    {
      "inputs": [],
      "name": "getOwner",
      "outputs": [
        {
          "internalType": "address",
          "name": "",
          "type": "address"
        }
      ],
      "stateMutability": "view",
      "type": "function"
    },
    {
      "inputs": [
        {
          "internalType": "address",
          "name": "to",
          "type": "address"
        },
        {
          "internalType": "string",
          "name": "uri",
          "type": "string"
        }
      ],
      "name": "mint",
      "outputs": [],
      "stateMutability": "nonpayable",
      "type": "function"
    },
    {
      "inputs": [],
      "name": "name",
      "outputs": [
        {
          "internalType": "string",
          "name": "",
          "type": "string"
        }
      ],
      "stateMutability": "view",
      "type": "function"
    },
    {
      "inputs": [
        {
          "internalType": "uint256",
          "name": "tokenId",
          "type": "uint256"
        }
      ],
      "name": "ownerOf",
      "outputs": [
        {
          "internalType": "address",
          "name": "",
          "type": "address"
        }
      ],
      "stateMutability": "view",
      "type": "function"
    },
    {
      "inputs": [],
      "name": "symbol",
      "outputs": [
        {
          "internalType": "string",
          "name": "",
          "type": "string"
        }
      ],
      "stateMutability": "view",
      "type": "function"
    },
    {
      "inputs": [
        {
          "internalType": "uint256",
          "name": "tokenId",
          "type": "uint256"
        }
      ],
      "name": "tokenURI",
      "outputs": [
        {
          "internalType": "string",
          "name": "",
          "type": "string"
        }
      ],
      "stateMutability": "view",
      "type": "function"
    },
    {
      "inputs": [
        {
          "internalType": "address",
          "name": "to",
          "type": "address"
        },
        {
          "internalType": "uint256",
          "name": "tokenId",
          "type": "uint256"
        }
      ],
      "name": "transfer",
      "outputs": [],
      "stateMutability": "nonpayable",
      "type": "function"
    }
  ],
  "bytecode": "0x608060405234801561001057600080fd5b506040516117563803806117568339818101604052810190610032919061020f565b33600260006101000a81548173ffffffffffffffffffffffffffffffffffffffff021916908373ffffffffffffffffffffffffffffffffffffffff160217905550816000908161008291906104a8565b50806001908161009291906104a8565b50505061057a565b6000604051905090565b600080fd5b600080fd5b600080fd5b600080fd5b6000601f19601f8301169050919050565b7f4e487b7100000000000000000000000000000000000000000000000000000000600052604160045260246000fd5b610101826100b8565b810181811067ffffffffffffffff821117156101205761011f6100c9565b5b80604052505050565b600061013361009a565b905061013f82826100f8565b919050565b600067ffffffffffffffff82111561015f5761015e6100c9565b5b610168826100b8565b9050602081019050919050565b60005b83811015610193578082015181840152602081019050610178565b60008484015250505050565b60006101b26101ad84610144565b610129565b9050828152602081018484840111156101ce576101cd6100b3565b5b6101d9848285610175565b509392505050565b600082601f8301126101f6576101f56100ae565b5b815161020684826020860161019f565b91505092915050565b60008060408385031215610226576102256100a4565b5b600083015167ffffffffffffffff811115610244576102436100a9565b5b610250858286016101e1565b925050602083015167ffffffffffffffff811115610271576102706100a9565b5b61027d858286016101e1565b9150509250929050565b600081519050919050565b7f4e487b7100000000000000000000000000000000000000000000000000000000600052602260045260246000fd5b600060028204905060018216806102d957607f821691505b6020821081036102ec576102eb610292565b5b50919050565b60008190508160005260206000209050919050565b60006020601f8301049050919050565b600082821b905092915050565b6000600883026103547fffffffffffffffffffffffffffffffffffffffffffffffffffffffffffffffff82610317565b61035e8683610317565b95508019841693508086168417925050509392505050565b6000819050919050565b6000819050919050565b60006103a56103a061039b84610376565b610380565b610376565b9050919050565b6000819050919050565b6103bf8361038a565b6103d36103cb826103ac565b848454610324565b825550505050565b600090565b6103e86103db565b6103f38184846103b6565b505050565b5b818110156104175761040c6000826103e0565b6001810190506103f9565b5050565b601f82111561045c5761042d816102f2565b61043684610307565b81016020851015610445578190505b61045961045185610307565b8301826103f8565b50505b505050565b600082821c905092915050565b600061047f60001984600802610461565b1980831691505092915050565b6000610498838361046e565b9150826002028217905092915050565b6104b182610287565b67ffffffffffffffff8111156104ca576104c96100c9565b5b6104d482546102c1565b6104df82828561041b565b600060209050601f8311600181146105125760008415610500578287015190505b61050a858261048c565b865550610572565b601f198416610520866102f2565b60005b8281101561054857848901518255600182019150602085019450602081019050610523565b868310156105655784890151610561601f89168261046e565b8355505b6001600288020188555050505b505050505050565b6111cd806105896000396000f3fe608060405234801561001057600080fd5b50600436106100885760003560e01c806395d89b411161005b57806395d89b4114610129578063a9059cbb14610147578063c87b56dd14610163578063d0def5211461019357610088565b806306fdde031461008d5780636352211e146100ab57806370a08231146100db578063893d20e81461010b575b600080fd5b6100956101af565b6040516100a29190610a5a565b60405180910390f35b6100c560048036038101906100c09190610ac6565b61023d565b6040516100d29190610b34565b60405180910390f35b6100f560048036038101906100f09190610b7b565b6102f0565b6040516101029190610bb7565b60405180910390f35b610113610339565b6040516101209190610b34565b60405180910390f35b610131610363565b60405161013e9190610a5a565b60405180910390f35b610161600480360381019061015c9190610bd2565b6103f1565b005b61017d60048036038101906101789190610ac6565b61063e565b60405161018a9190610a5a565b60405180910390f35b6101ad60048036038101906101a89190610d47565b61072d565b005b600080546101bc90610dd2565b80601f01602080910402602001604051908101604052809291908181526020018280546101e890610dd2565b80156102355780601f1061020a57610100808354040283529160200191610235565b820191906000526020600020905b81548152906001019060200180831161021857829003601f168201915b505050505081565b6000806003600084815260200190815260200160002060009054906101000a900473ffffffffffffffffffffffffffffffffffffffff169050600073ffffffffffffffffffffffffffffffffffffffff168173ffffffffffffffffffffffffffffffffffffffff16036102e757826040517f6caeb1300000000000000000000000000000000000000000000000000000000081526004016102de9190610bb7565b60405180910390fd5b80915050919050565b6000600460008373ffffffffffffffffffffffffffffffffffffffff1673ffffffffffffffffffffffffffffffffffffffff168152602001908152602001600020549050919050565b6000600260009054906101000a900473ffffffffffffffffffffffffffffffffffffffff16905090565b6001805461037090610dd2565b80601f016020809104026020016040519081016040528092919081815260200182805461039c90610dd2565b80156103e95780601f106103be576101008083540402835291602001916103e9565b820191906000526020600020905b8154815290600101906020018083116103cc57829003601f168201915b505050505081565b600033905060006104018361023d565b90508173ffffffffffffffffffffffffffffffffffffffff168173ffffffffffffffffffffffffffffffffffffffff1614610477578181846040517fe93292a800000000000000000000000000000000000000000000000000000000815260040161046e93929190610e03565b60405180910390fd5b600073ffffffffffffffffffffffffffffffffffffffff168473ffffffffffffffffffffffffffffffffffffffff16036104dd576040517f9c8d2cd200000000000000000000000000000000000000000000000000000000815260040160405180910390fd5b6001600460008473ffffffffffffffffffffffffffffffffffffffff1673ffffffffffffffffffffffffffffffffffffffff168152602001908152602001600020600082825461052d9190610e69565b925050819055506001600460008673ffffffffffffffffffffffffffffffffffffffff1673ffffffffffffffffffffffffffffffffffffffff16815260200190815260200160002060008282546105849190610e9d565b92505081905550836003600085815260200190815260200160002060006101000a81548173ffffffffffffffffffffffffffffffffffffffff021916908373ffffffffffffffffffffffffffffffffffffffff160217905550828473ffffffffffffffffffffffffffffffffffffffff168373ffffffffffffffffffffffffffffffffffffffff167fddf252ad1be2c89b69c2b068fc378daa952ba7f163c4a11628f55a4df523b3ef60405160405180910390a450505050565b60606106498261095e565b61068a57816040517f6caeb1300000000000000000000000000000000000000000000000000000000081526004016106819190610bb7565b60405180910390fd5b6005600083815260200190815260200160002080546106a890610dd2565b80601f01602080910402602001604051908101604052809291908181526020018280546106d490610dd2565b80156107215780601f106106f657610100808354040283529160200191610721565b820191906000526020600020905b81548152906001019060200180831161070457829003601f168201915b50505050509050919050565b600260009054906101000a900473ffffffffffffffffffffffffffffffffffffffff1673ffffffffffffffffffffffffffffffffffffffff163373ffffffffffffffffffffffffffffffffffffffff16146107b4576040517f30cd747100000000000000000000000000000000000000000000000000000000815260040160405180910390fd5b600073ffffffffffffffffffffffffffffffffffffffff168273ffffffffffffffffffffffffffffffffffffffff160361081a576040517f9c8d2cd200000000000000000000000000000000000000000000000000000000815260040160405180910390fd5b600060066000815461082b90610ed1565b9190508190559050826003600083815260200190815260200160002060006101000a81548173ffffffffffffffffffffffffffffffffffffffff021916908373ffffffffffffffffffffffffffffffffffffffff1602179055506001600460008573ffffffffffffffffffffffffffffffffffffffff1673ffffffffffffffffffffffffffffffffffffffff16815260200190815260200160002060008282546108d59190610e9d565b92505081905550816005600083815260200190815260200160002090816108fc91906110c5565b50808373ffffffffffffffffffffffffffffffffffffffff16600073ffffffffffffffffffffffffffffffffffffffff167fddf252ad1be2c89b69c2b068fc378daa952ba7f163c4a11628f55a4df523b3ef60405160405180910390a4505050565b60008073ffffffffffffffffffffffffffffffffffffffff166003600084815260200190815260200160002060009054906101000a900473ffffffffffffffffffffffffffffffffffffffff1673ffffffffffffffffffffffffffffffffffffffff1614159050919050565b600081519050919050565b600082825260208201905092915050565b60005b83811015610a045780820151818401526020810190506109e9565b60008484015250505050565b6000601f19601f8301169050919050565b6000610a2c826109ca565b610a3681856109d5565b9350610a468185602086016109e6565b610a4f81610a10565b840191505092915050565b60006020820190508181036000830152610a748184610a21565b905092915050565b6000604051905090565b600080fd5b600080fd5b6000819050919050565b610aa381610a90565b8114610aae57600080fd5b50565b600081359050610ac081610a9a565b92915050565b600060208284031215610adc57610adb610a86565b5b6000610aea84828501610ab1565b91505092915050565b600073ffffffffffffffffffffffffffffffffffffffff82169050919050565b6000610b1e82610af3565b9050919050565b610b2e81610b13565b82525050565b6000602082019050610b496000830184610b25565b92915050565b610b5881610b13565b8114610b6357600080fd5b50565b600081359050610b7581610b4f565b92915050565b600060208284031215610b9157610b90610a86565b5b6000610b9f84828501610b66565b91505092915050565b610bb181610a90565b82525050565b6000602082019050610bcc6000830184610ba8565b92915050565b60008060408385031215610be957610be8610a86565b5b6000610bf785828601610b66565b9250506020610c0885828601610ab1565b9150509250929050565b600080fd5b600080fd5b7f4e487b7100000000000000000000000000000000000000000000000000000000600052604160045260246000fd5b610c5482610a10565b810181811067ffffffffffffffff82111715610c7357610c72610c1c565b5b80604052505050565b6000610c86610a7c565b9050610c928282610c4b565b919050565b600067ffffffffffffffff821115610cb257610cb1610c1c565b5b610cbb82610a10565b9050602081019050919050565b82818337600083830152505050565b6000610cea610ce584610c97565b610c7c565b905082815260208101848484011115610d0657610d05610c17565b5b610d11848285610cc8565b509392505050565b600082601f830112610d2e57610d2d610c12565b5b8135610d3e848260208601610cd7565b91505092915050565b60008060408385031215610d5e57610d5d610a86565b5b6000610d6c85828601610b66565b925050602083013567ffffffffffffffff811115610d8d57610d8c610a8b565b5b610d9985828601610d19565b9150509250929050565b7f4e487b7100000000000000000000000000000000000000000000000000000000600052602260045260246000fd5b60006002820490506001821680610dea57607f821691505b602082108103610dfd57610dfc610da3565b5b50919050565b6000606082019050610e186000830186610b25565b610e256020830185610b25565b610e326040830184610ba8565b949350505050565b7f4e487b7100000000000000000000000000000000000000000000000000000000600052601160045260246000fd5b6000610e7482610a90565b9150610e7f83610a90565b9250828203905081811115610e9757610e96610e3a565b5b92915050565b6000610ea882610a90565b9150610eb383610a90565b9250828201905080821115610ecb57610eca610e3a565b5b92915050565b6000610edc82610a90565b91507fffffffffffffffffffffffffffffffffffffffffffffffffffffffffffffffff8203610f0e57610f0d610e3a565b5b600182019050919050565b60008190508160005260206000209050919050565b60006020601f8301049050919050565b600082821b905092915050565b600060088302610f7b7fffffffffffffffffffffffffffffffffffffffffffffffffffffffffffffffff82610f3e565b610f858683610f3e565b95508019841693508086168417925050509392505050565b6000819050919050565b6000610fc2610fbd610fb884610a90565b610f9d565b610a90565b9050919050565b6000819050919050565b610fdc83610fa7565b610ff0610fe882610fc9565b848454610f4b565b825550505050565b600090565b611005610ff8565b611010818484610fd3565b505050565b5b8181101561103457611029600082610ffd565b600181019050611016565b5050565b601f8211156110795761104a81610f19565b61105384610f2e565b81016020851015611062578190505b61107661106e85610f2e565b830182611015565b50505b505050565b600082821c905092915050565b600061109c6000198460080261107e565b1980831691505092915050565b60006110b5838361108b565b9150826002028217905092915050565b6110ce826109ca565b67ffffffffffffffff8111156110e7576110e6610c1c565b5b6110f18254610dd2565b6110fc828285611038565b600060209050601f83116001811461112f576000841561111d578287015190505b61112785826110a9565b86555061118f565b601f19841661113d86610f19565b60005b8281101561116557848901518255600182019150602085019450602081019050611140565b86831015611182578489015161117e601f89168261108b565b8355505b6001600288020188555050505b50505050505056fea2646970667358221220559c338cd568188a7561c83282f97f4f2336f2a7f6f057c71bccca86efe6280064736f6c634300081c0033",
  "linkReferences": {},
  "deployedLinkReferences": {}
}