{
  "_format": "hh-sol-artifact-1",
  "contractName": "NFTSale",
  "sourceName": "contracts/NFTSale.sol",
  "abi": [
    {
      "inputs": [
        {
          "internalType": "address",
          "name": "nftAddress",
          "type": "address"
        }
      ],
      "stateMutability": "nonpayable",
      "type": "constructor"
    },
    {
      "inputs": [],
      "name": "IncorrectPayment",
      "type": "error"
    },
    {
      "inputs": [],
      "name": "NotOwner",
      "type": "error"
    },
    {
      "inputs": [],
      "name": "WithdrawalFailed",
      "type": "error"
    },
    {
      "anonymous": false,
      "inputs": [
        {
          "indexed": true,
          "internalType": "address",
          "name": "buyer",
          "type": "address"
        },
        {
          "indexed": true,
          "internalType": "uint256",
          "name": "tokenId",
          "type": "uint256"
        }
      ],
      "name": "TokenSold",
      "type": "event"
    },
    {
      "inputs": [],
      "name": "NFT_PRICE",
      "outputs": [
        {
          "internalType": "uint256",
          "name": "",
          "type": "uint256"
        }
      ],
      "stateMutability": "view",
      "type": "function"
    },
    {
      "inputs": [
        {
          "internalType": "uint256",
          "name": "tokenId",
          "type": "uint256"
        }
      ],
      "name": "buyToken",
      "outputs": [],
      "stateMutability": "payable",
      "type": "function"
    },
    {
      "inputs": [],
      "name": "getNFTContractAddress",
      "outputs": [
        {
          "internalType": "address",
          "name": "",
          "type": "address"
        }
      ],
      "stateMutability": "view",
      "type": "function"
    },
    {
      "inputs": [],
      "name": "getOwner",
      "outputs": [
        {
          "internalType": "address",
          "name": "",
          "type": "address"
        }
      ],
      "stateMutability": "view",
      "type": "function"
    },
    {
      "inputs": [],
      "name": "withdraw",
      "outputs": [],
      "stateMutability": "nonpayable",
      "type": "function"
    }
  ],
  "bytecode": "0x608060405234801561001057600080fd5b506040516106af3803806106af8339818101604052810190610032919061011c565b33600160006101000a81548173ffffffffffffffffffffffffffffffffffffffff021916908373ffffffffffffffffffffffffffffffffffffffff160217905550806000806101000a81548173ffffffffffffffffffffffffffffffffffffffff021916908373ffffffffffffffffffffffffffffffffffffffff16021790555050610149565b600080fd5b600073ffffffffffffffffffffffffffffffffffffffff82169050919050565b60006100e9826100be565b9050919050565b6100f9816100de565b811461010457600080fd5b50565b600081519050610116816100f0565b92915050565b600060208284031215610132576101316100b9565b5b600061014084828501610107565b91505092915050565b610557806101586000396000f3fe60806040526004361061004a5760003560e01c80632d296bf11461004f57806338b3b5b51461006b5780633ccfd60b14610096578063676dd563146100ad578063893d20e8146100d8575b600080fd5b610069600480360381019061006491906103ff565b610103565b005b34801561007757600080fd5b50610080610217565b60405161008d919061046d565b60405180910390f35b3480156100a257600080fd5b506100ab610240565b005b3480156100b957600080fd5b506100c261038f565b6040516100cf9190610497565b60405180910390f35b3480156100e457600080fd5b506100ed61039a565b6040516100fa919061046d565b60405180910390f35b6611c37937e080003414610143576040517f569e8c1100000000000000000000000000000000000000000000000000000000815260040160405180910390fd5b60008054906101000a900473ffffffffffffffffffffffffffffffffffffffff1673ffffffffffffffffffffffffffffffffffffffff1663a9059cbb33836040518363ffffffff1660e01b815260040161019e9291906104b2565b600060405180830381600087803b1580156101b857600080fd5b505af11580156101cc573d6000803e3d6000fd5b50505050803373ffffffffffffffffffffffffffffffffffffffff167ffe2ff4cf36ff7d2c2b06eb960897ee0d76d9c3e58da12feb7b93e86b226dd34460405160405180910390a350565b60008060009054906101000a900473ffffffffffffffffffffffffffffffffffffffff16905090565b600160009054906101000a900473ffffffffffffffffffffffffffffffffffffffff1673ffffffffffffffffffffffffffffffffffffffff163373ffffffffffffffffffffffffffffffffffffffff16146102c7576040517f30cd747100000000000000000000000000000000000000000000000000000000815260040160405180910390fd5b6000600160009054906101000a900473ffffffffffffffffffffffffffffffffffffffff1673ffffffffffffffffffffffffffffffffffffffff164760405161030f9061050c565b60006040518083038185875af1925050503d806000811461034c576040519150601f19603f3d011682016040523d82523d6000602084013e610351565b606091505b505090508061038c576040517f27fcd9d100000000000000000000000000000000000000000000000000000000815260040160405180910390fd5b50565b6611c37937e0800081565b6000600160009054906101000a900473ffffffffffffffffffffffffffffffffffffffff16905090565b600080fd5b6000819050919050565b6103dc816103c9565b81146103e757600080fd5b50565b6000813590506103f9816103d3565b92915050565b600060208284031215610415576104146103c4565b5b6000610423848285016103ea565b91505092915050565b600073ffffffffffffffffffffffffffffffffffffffff82169050919050565b60006104578261042c565b9050919050565b6104678161044c565b82525050565b6000602082019050610482600083018461045e565b92915050565b610491816103c9565b82525050565b60006020820190506104ac6000830184610488565b92915050565b60006040820190506104c7600083018561045e565b6104d46020830184610488565b9392505050565b600081905092915050565b50565b60006104f66000836104db565b9150610501826104e6565b600082019050919050565b6000610517826104e9565b915081905091905056fea264697066735822122087257b783f0d963b1d7a9159c58025dd870921110f407b301de15e94ee6767d364736f6c634300081c0033",
  "linkReferences": {},
  "deployedLinkReferences": {}
}